:020000040800F2
:1000000090060020D10100084702000849020008BC
:100010004D020008510200085502000800000000CF
:10002000000000000000000000000000590200086D
:100030005B020008000000005D0200085F0200088B
:10004000EB010008EB010008EB010008EB010008E0
:10005000EB010008EB010008EB010008EB010008D0
:10006000EB010008EB010008EB010008EB010008C0
:10007000EB010008EB010008EB010008EB010008B0
:10008000EB010008EB010008EB010008EB010008A0
:10009000EB010008EB010008EB010008EB01000890
:1000A000EB010008EB010008EB010008EB01000880
:1000B000EB010008EB010008EB010008EB01000870
:1000C000EB010008EB010008EB010008EB01000860
:1000D000EB010008EB010008EB010008EB01000850
:1000E000EB010008EB010008EB010008EB01000840
:1000F000EB010008EB010008EB010008EB01000830
:10010000EB010008EB010008EB010008EB0100081F
:10011000EB010008EB010008EB010008EB0100080F
:10012000EB010008EB010008EB010008EB010008FF
:1001300000F002F800F03AF80AA090E8000C8244BF
:100140008344AAF10107DA4501D100F02FF8AFF29C
:10015000090EBAE80F0013F0010F18BFFB1A43F0A5
:10016000010318475C2000007C200000103A24BFE7
:1001700078C878C1FAD8520724BF30C830C144BF0C
:1001800004680C607047000000230024002500264E
:10019000103A28BF78C1FBD8520728BF30C148BFEA
:1001A0000B6070471FB51FBD10B510BD01F0BDFE3F
:1001B0001146FFF7F7FF00F044F801F0DBFE03B44F
:1001C000FFF7F2FF03BC01F0DFFE000030BF0000CC
:1001D0000948804709480047FEE7FEE7FEE7FEE7DB
:1001E000FEE7FEE7FEE7FEE7FEE7FEE70448054917
:1001F000054A064B70470000E30A00083101000879
:100200009000002090060020900200209002002024
:1002100000F0C6FA00F00AFB00F0D6F800F08AF809
:1002200000F052FA00F06BF900F01AF8642000F0C8
:10023000B3F805E04FF4FA7000F0AEF800F0D8F92A
:10024000F8E7FFF7E5FF704700BFFEE700BFFEE7F6
:1002500000BFFEE700BFFEE770477047704770477A
:1002600000B587B00121082001F06EFA0121480293
:1002700001F06AFA0120ADF8180000208DF81B008B
:1002800006A92A4800F0A4FF294800F019FD002023
:1002900001908DF808008DF809004FF4602003905C
:1002A0000020049001208DF8140001A9204800F0DE
:1002B0002EFD4FF4404001F0ABF905230122082147
:1002C0001B4800F0BCFD0121194800F04CFD184806
:1002D00000F06BFD00BF164800F06CFD0028FAD15D
:1002E000134800F071FD00BF114800F072FD0028B6
:1002F000FAD107B000BD70B502210D4800F0EDFE47
:1003000001210B4800F06FFD00BF0221084800F0FA
:10031000DBFE0028F9D0064800F0F8FD04464FF453
:10032000A5706043C0F30735284670BD000C01403E
:100330000024014030B5204800684FF47A72B0FBC9
:10034000F2F1B1F1807F00D31DE021F07F40401E2B
:100350004FF0E022506150170F22002807DA1307F0
:100360001D0E164B00F00F04241F1D5503E013074C
:100370001C0E134B1C5400BF00204FF0E022906174
:100380000720106100BF4FF0E020006920F001005D
:100390004FF0E021086130BD0A4908604FF0E021CC
:1003A000096941F001014FF0E022116100BF0549E8
:1003B00009680029FBD170470400002018ED00E017
:1003C00000E400E00000002008B54FF4806000F079
:1003D00009FC25208DF8000006208DF80100002082
:1003E0008DF8020001208DF80300684600F0FFFB45
:1003F0004FF4806000F0F6FB26208DF80000072007
:100400008DF8010000208DF8020001208DF8030016
:10041000684600F0ECFB08BD10B50D48006840F0E0
:1004200004000B4908600B48C06940F0805009493E
:10043000C8610948006840F006000749086008469E
:10044000406840F480704860FFF7C0FE10BD0000B7
:1004500010ED00E0001002400070004070B504464E
:1004600025461021964800F060FF284600F07AF9F2
:1004700070BD70B5044625461021914800F057FF25
:10048000284600F06FF970BD70B505460C46A01CFB
:10049000C4B2281DC5B205F1B001C8B2FFF7E9FF2B
:1004A000102101EB1410FFF7E4FF04F00F00FFF739
:1004B000E0FF70BD70B500240EE000212046FFF77C
:1004C000E3FF002504E00020FFF7C8FF681CC5B269
:1004D000802DF8DB601CC4B2042CEEDB70BD70B55F
:1004E000054600212846FFF7CFFF002404E0002046
:1004F000FFF7B4FF601CC4B2802CF8DB70BD10B5F0
:100500004FF480716E4800F012FF6420FFF744FF43
:100510004FF480716A4800F008FFC820FFF73CFFE5
:10052000AE20FFF7A6FFD520FFF7A3FF8020FFF73F
:10053000A0FFA820FFF79DFF3F20FFF79AFFD320E1
:10054000FFF797FF0020FFF794FF4020FFF791FF90
:100550008D20FFF78EFF1420FFF78BFF2020FFF781
:1005600088FF0220FFF785FFC820FFF782FFA12048
:10057000FFF77FFFDA20FFF77CFF1220FFF779FFFC
:100580008120FFF776FFCF20FFF773FFD920FFF719
:1005900070FFF120FFF76DFFDB20FFF76AFF4020BF
:1005A000FFF767FFAF20FFF764FFFFF783FF10BD82
:1005B00070B5064635460120FFF791FF0621012060
:1005C000FFF762FF10E000240BE02978203901EBEF
:1005D00041013C4A02EB4101085DFFF73FFF601C0F
:1005E000C4B2062CF1DB6D1C28780028EBD170BD5D
:1005F0002DE9F041FFF77FFE05460A2095FBF0F15B
:1006000000FB1150C6B20A2095FBF0F00A2190FBC6
:10061000F1F201FB1200C7B2642095FBF0F000F08C
:10062000FF080020FFF75BFF06210020FFF72CFFEB
:1006300000240BE008F1100101EB4101214A02EB1B
:100640004101085DFFF70AFF601CC4B2062CF1DB14
:10065000002406E01B495431085DFFF7FFFE601CD3
:10066000C4B2062CF6DB00240BE007F1100101EB0D
:100670004101144A02EB4101085DFFF7EFFE601CE7
:10068000C4B2062CF1DB00240BE006F1100101EBF3
:1006900041010C4A02EB4101085DFFF7DFFE601CDF
:1006A000C4B2062CF1DB002406E00649A231085D45
:1006B000FFF7D4FE601CC4B2062CF6DBBDE8F08167
:1006C00000080140961F000800B587B0012141F2E3
:1006D000040001F039F8E020ADF8040003208DF8A3
:1006E000060018208DF8070001A92B4800F070FDC6
:1006F0004020ADF8040048208DF8070001A92648E5
:1007000000F066FD4FF48870ADF8040010208DF8FD
:10071000070001A9204800F05BFD0020ADF80800AB
:100720004FF48270ADF80A000020ADF80C00ADF86F
:100730000E00ADF810004FF40070ADF81200382034
:10074000ADF814000020ADF816000720ADF8180031
:1007500002A9124801F082F80121104801F023F9A2
:1007600007B000BD10B5044600BF02210B4801F0E0
:100770009EF90028F9D02146084801F045F900BF4C
:100780000121064801F093F90028F9D0034801F04F
:100790003DF9C0B210BD000000080140003001402A
:1007A00000B585B0012144F2040000F0CDFF012125
:1007B000084600F0BCFF4FF4E13001900020ADF896
:1007C0000A00ADF80800ADF80C00ADF810000C20E0
:1007D000ADF80E0001A9874801F0E3F90121854831
:1007E00001F06BFA012240F22551824801F071FAC2
:1007F0004FF40070ADF8000018208DF803000320BE
:100800008DF8020069467C4800F0E2FC4FF48060FD
:10081000ADF8000004208DF8030003208DF80200DD
:100820006946754800F0D4FC05B000BD00B585B040
:100830000121480400F095FF0121042000F084FF0D
:100840004FF4165001900020ADF80A00ADF80800F2
:10085000ADF80C00ADF810000C20ADF80E0001A9A9
:10086000664801F09EF90121644801F026FA04204F
:10087000ADF8000018208DF8030003208DF8020069
:1008800069465D4800F0A4FC0920ADF80000042092
:100890008DF8030003208DF802006946564800F0E9
:1008A00097FC05B000BD70B504460D4629462046AC
:1008B00001F070FA00BF8021204601F0D9FA01282A
:1008C000F9D170BD10B5044600BF2021204601F0CB
:1008D000CFFA0028F9D0204601F060FAC0B210BD6E
:1008E00070B506460D462C460BE014F8011B304649
:1008F00001F050FA00BF8021304601F0B9FA01281A
:10090000F9D120780028F0D170BD70B505460C46AD
:1009100004F00F00102859D2DFE800F0080D12177C
:100920001C21262B30353A3F44494E53302128466E
:10093000FFF7B9FF4BE031212846FFF7B4FF46E04F
:1009400032212846FFF7AFFF41E033212846FFF769
:10095000AAFF3CE034212846FFF7A5FF37E0352108
:100960002846FFF7A0FF32E036212846FFF79BFF1D
:100970002DE037212846FFF796FF28E0382128464A
:10098000FFF791FF23E039212846FFF78CFF1EE097
:1009900041212846FFF787FF19E042212846FFF74B
:1009A00082FF14E043212846FFF77DFF0FE044213A
:1009B0002846FFF778FF0AE045212846FFF773FF36
:1009C00005E046212846FFF76EFF00E000BF00BFAC
:1009D00070BD70B505460C4609A12846FFF780FF9B
:1009E00021112846FFF791FF21462846FFF78DFF8A
:1009F00070BD000000380140000801400044004084
:100A0000307800000CB50020019000906C48006820
:100A100040F480306A49086000BF6948006800F40B
:100A2000003000900198401C0190009818B901987E
:100A3000B0F5A06FF1D16248006800F4003010B149
:100A40000120009001E0002000900098012843D18F
:100A50005C48006840F010005A4908600846006889
:100A600020F0030008600846006840F002000860BB
:100A70005348406852494860084640684860084604
:100A8000406840F4806048600846406820F47C106C
:100A900048600846406840F4E8104860084600682E
:100AA00040F08070086000BF4548006800F00070AA
:100AB0000028F9D04248406820F0030040494860CF
:100AC0000846406840F00200486000BF3C4840686B
:100AD00000F00C000828F9D10CBD10B5FFF792FF0B
:100AE00010BD10B53648006840F001003449086078
:100AF0000846406834490840314948600846006863
:100B0000324908402E4908600846006820F48020D9
:100B100008600846406820F4FE0048604FF41F005B
:100B20008860FFF7DAFF4FF000602949086010BDC8
:100B300010B5002100200022214B5B6803F00C015E
:100B400021B1042906D0082928D107E0214B224CE5
:100B5000236027E01F4B204C236023E0184B5B6889
:100B600003F47010164B5B6803F48032022303EB2E
:100B7000904022B9194B4343174C23600DE0104BB2
:100B80005B6803F4003323B1144B4343124C2360DE
:100B900003E0104B4343104C236003E00D4B0E4C1D
:100BA000236000BF00BF064B5B68C3F303130C4C0C
:100BB000E15C094B1B68CB40074C236010BD000073
:100BC00000100240002002400000FFF8FFFFF6FE88
:100BD00008ED00E000127A000400002000093D004A
:100BE0000800002031490143314A1160704770B557
:100BF000002100230F22C47804B32D4C246804F490
:100C0000E064C4F5E064210AC1F10403CA404478F9
:100C100004FA03F18478144021430901254C067835
:100C2000A155047804F01F050124AC4005786D112E
:100C3000AD0005F1E025C5F8004109E0047804F0B5
:100C40001F050124AC401C4D0678761145F826405E
:100C500070BD1A4A0A400243154B1B1F1A607047A9
:100C600039B1134A121D12680243114B1B1D1A6041
:100C700006E00F4A121D126882430D4B1B1D1A60BD
:100C80007047042808D14FF0E021096941F00401C0
:100C90004FF0E022116107E04FF0E021096921F0F7
:100CA00004014FF0E0221161704700000000FA05D6
:100CB0000CED00E000E400E080E100E080FFFF1FB9
:100CC00010B50446FA48844208D10121401500F0CD
:100CD00055FD0021601500F051FD17E0F5488442F4
:100CE00008D10121001500F049FD0021201500F078
:100CF00045FD0BE0F048844208D10121C80300F013
:100D00003DFD00214FF4004000F038FD10BD30B52E
:100D10000246002000235068E84C20400D790C6802
:100D200044EA0524204350609068E54C2040D1E916
:100D300002542C434D7944EA450420439060D06A24
:100D400020F470000C7C641EE4B2234340EA03509C
:100D5000D06230BD00210160017141718160C160CC
:100D600001210174704721B1826842F00102826062
:100D700003E0826822F001028260704721B182683C
:100D800042F48072826003E0826822F480728260A2
:100D9000704710B50023CBB21AB144681C434460BD
:100DA00002E044689C43446010BD816841F0080142
:100DB00081607047014600208A6802F008020AB18B
:100DC000012000E000207047816841F0040181604B
:100DD0007047014600208A6802F004020AB101202F
:100DE00000E00020704721B1826842F4A0028260D6
:100DF00003E0826822F4A00282607047014600206E
:100E00008A6802F480020AB1012000E000207047E5
:100E100010B50A4600210023416821F46041531EA9
:100E200041EA4331416010BD21B1426842F40062A1
:100E3000426003E0426822F4006242607047F0B50D
:100E400004460D4600200021092D11DDE068A5F1C2
:100E50000A0606EB4607072606FA07F18843A5F1BE
:100E60000A0606EB460603FA06F10843E0600CE0CA
:100E7000206905EB4507072606FA07F1884305EBCD
:100E8000450603FA06F108432061072A0FDA606B72
:100E9000561E06EB86071F2606FA07F18843561EE4
:100EA00006EB860605FA06F10843606322E00D2A88
:100EB0000FDA206BD61F06EB86071F2606FA07F10E
:100EC0008843D61F06EB860605FA06F10843206321
:100ED00010E0E06AA2F10D0606EB86071F2606FA6F
:100EE00007F18843A2F10D0606EB860605FA06F126
:100EF0000843E062F0BD21B1826842F48012826052
:100F000003E0826822F48012826070470146C86C58
:100F100080B2704766484C300068704721B1426823
:100F200042F48062426003E0426822F480624260E0
:100F3000704721B1426842F48052426003E0426847
:100F400022F48052426070470A460021816821F4F1
:100F5000E04111438160704721B1826842F4004250
:100F6000826003E0826822F400428260704721B10F
:100F7000826842F40212826003E0826822F4021264
:100F800082607047014600208A6802F400120AB1AC
:100F9000012000E000207047F0B50446154600200F
:100FA00000220026092911DDE068A1F10A0707EBFC
:100FB000470C072707FA0CF29043A1F10A0707EB49
:100FC000470703FA07F21043E0600CE0206901EBE9
:100FD000410C072707FA0CF2904301EB410703FA93
:100FE00007F210432061A06BC0F30156EF1C06F11D
:100FF000010CA7EB0C0707EB870C1F2707FA0CF275
:101000009043EF1C06F1010CA7EB0C0707EB8707D9
:1010100001FA07F21043A063F0BD10B50A460021A3
:101020000023816B21F44011531E41EA0351816377
:1010300010BD08B5002300930090009B0B44009363
:10104000009B1A6008BD08B502460020009000927F
:1010500001F12800009B184400900098006880B2BD
:1010600008BD0A4600214168164B194011434160F2
:1010700070474162826270470A460021416821F050
:101080001F0111434160704740B1094908310968A7
:1010900041F40001064A0832116007E004490831B2
:1010A000096821F40001024A08321160704700000B
:1010B0000024014000280140003C0140FFFEF0FFF9
:1010C000FDF7F1FFFFFD3FFF0246002013680B40D4
:1010D0000BB1012000E000207047CA430260704756
:1010E00070B502460020002300240B125568CEB2D2
:1010F00005EA060415681D4015B10CB1012000E099
:10110000002070BD00220A12D34303607047000024
:1011100010B50446CC48844208D10121042000F0D7
:101120002DFB0021042000F029FB46E0C748844243
:1011300008D10121082000F021FB0021082000F047
:101140001DFB3AE0C248844208D10121102000F082
:1011500015FB0021102000F011FB2EE0BD48844259
:1011600008D10121202000F009FB0021202000F0FF
:1011700005FB22E0B848844208D10121402000F05C
:10118000FDFA0021402000F0F9FA16E0B34884424D
:1011900008D10121802000F0F1FA0021802000F028
:1011A000EDFA0AE0AE48844207D10121801500F033
:1011B000E5FA0021A01500F0E1FA10BD10B50121FB
:1011C000084600F0DBFA0021012000F0D7FA10BD3C
:1011D0002DE9F041024600250026002000230024CE
:1011E000002791F803C00CF00F0591F803C00CF034
:1011F000100CBCF1000F03D091F802C04CEA0505B9
:1012000091F800C0BCF1000F31D0146800202BE031
:101210004FF0010C0CFA00F3B1F800C00CEA030621
:101220009E4220D183004FF00F0C0CFA03F7BC4311
:1012300005FA03FC4CEA040491F803C0BCF1280F42
:1012400006D14FF0010C0CFA00FCC2F814C00AE001
:1012500091F803C0BCF1480F05D14FF0010C0CFA16
:1012600000FCC2F810C0401C0828D1D31460B1F8AB
:1012700000C0BCF1FF0F34DD546800202EE000F107
:10128000080C4FF0010808FA0CF3B1F800C00CEAA2
:1012900003069E4221D183004FF00F0C0CFA03F796
:1012A000BC4305FA03FC4CEA040491F803C0BCF10A
:1012B000280F05D100F1080C08FA0CF8C2F81480C8
:1012C00091F803C0BCF1480F07D100F1080C4FF0B2
:1012D000010808FA0CF8C2F81080401C0828CED388
:1012E0005460BDE8F0814FF6FF71018002218170EA
:1012F0000421C17070470246002093680B400BB177
:10130000012000E0002070470146886880B27047E5
:1013100002460020D3680B400BB1012000E0002002
:1013200070470146C86880B27047016170474161EB
:1013300070470AB1016100E041617047C1607047C8
:101340004FF480320A4382618161826182698269DD
:10135000704702460020434B18684FF680731840D0
:1013600040EA021008433F4B186070473E49C8618D
:101370007047F0B50A46002300240021002500F044
:101380000046B6F1004F02D1364EF16901E0354E0C
:101390007168C0F3034583B200F44016B6F5401FF0
:1013A00008D121F070612F4E766826F070662D4FBF
:1013B0007E6012E000F48016B6F5801F06D1032689
:1013C00006FA05F4A14341F0706106E0460D3601CE
:1013D00003FA06F6B14341F0706122B1460D3601C1
:1013E00003FA06F6314300F00046B6F1004F02D191
:1013F0001C4EF16101E01B4E7160F0BD30B5002262
:101400008B071C0F0F2303FA04F2164B08338C10C2
:1014100053F824309343134C08348D1044F825308E
:1014200023468C1053F824308C07240F00FA04F460
:1014300023430C4C08348D1044F8253030BD0A4944
:10144000DC3108607047000000080140000C0140DA
:10145000001001400014014000180140001C014030
:10146000002001400000014000002042DF480068E9
:1014700040F00100DD49086008464068DC4908404A
:10148000DA49486008460068DA490840D7490860E8
:101490000846006820F4802008600846406820F470
:1014A000FE0048604FF41F0088607047CF4909680C
:1014B00021F48031CD4A11601146096821F4802160
:1014C0001160B0F5803F03D0B0F5802F0ED106E05B
:1014D000C649096841F48031C44A116007E0C34934
:1014E000096841F4A021C14A116000E000BF00BFBB
:1014F000704710B501460022002300204A11012A3E
:1015000002D1BA4C236806E0022A02D1B74C236A02
:1015100001E0B64C636A01F01F02012494401C40B4
:101520000CB1012000E0002010BD38B50020009073
:101530000024002500BF3120FFF7DBFF054600989F
:10154000401C00900098B0F5A06F01D0002DF2D0A3
:101550003120FFF7CEFF08B1012400E0002420462F
:1015600038BD01460020A14A106820F0F80040EA8A
:10157000C10010607047A049086070470246002013
:101580009A4B586820F47C1042EA01031843974BA9
:101590005860704798490866704701460020934A92
:1015A000506820F003000843506070478F4840683F
:1015B00000F00C007047014600208C4A506820F073
:1015C000F00008435060704701460020874A506889
:1015D00020F4E06008435060704701460020834AD1
:1015E000506820F4605040EAC1005060704729B153
:1015F0007E4A527A02437D4B5A7204E07B4A527A09
:1016000082437A4B5A7270477B49D83108607047E1
:1016100001460020754A506820F44040084350605D
:1016200070470021714A20321170704A82F82010F0
:10163000012802D004280AD104E001216B4A20329B
:10164000117005E00521694A2032117000E000BFE9
:1016500000BF70476949086070476449096A0143DF
:10166000624A11627047654944390860704730B575
:1016700000210022002400235C4D6D6805F00C0160
:1016800021B1042905D0082923D105E05C4D05606E
:1016900022E05B4D05601FE0544D6D6805F470124B
:1016A000524D6D6805F48034022505EB92421CB959
:1016B000544D554305600BE04C4D6D6805F4003505
:1016C0001DB1504D5543056002E04D4D5543056039
:1016D00002E04B4D056000BF00BF444D6D6805F052
:1016E000F0010909484D6B5C0568DD4045603F4DE0
:1016F0006D6805F4E061090A434D6B5C4568DD40A7
:1017000085603A4D6D6805F46051C90A3E4D6B5CC9
:101710004568DD40C560354D6D6805F44041890B75
:101720003A4D6B5CC568B5FBF3F5056130BD29B179
:101730002E4A526902432D4B5A6104E02B4A5269EA
:1017400082432A4B5A61704729B1284A9269024361
:10175000264B9A6104E0254A92698243234B9A61A1
:10176000704729B1214AD2690243204BDA6104E073
:101770001E4AD26982431D4BDA61704729B11B4A68
:10178000D2680243194BDA6004E0184AD2688243F7
:10179000164BDA60704729B1144A12690243134BA1
:1017A0001A6104E0114A12698243104B1A617047B2
:1017B00012494039086070470F49C86470470B49A7
:1017C000C87170470948406A40F080700749486214
:1017D000704701460020054A92680A400AB101207C
:1017E00000E00020704701498872704700100240F5
:1017F0000000FFF8FFFFF6FE000042428004424274
:1018000000127A0000093D00180000202800002086
:1018100010B50446BE48844208D101218014FFF768
:10182000ADFF0021A014FFF7A9FF16E0B9488442DC
:1018300008D101210014FFF7AEFF00212014FFF7AB
:10184000AAFF0AE0B448844207D10121C013FFF780
:10185000A2FF0021E013FFF79EFF10BD10B500228C
:10186000028802F441520B884C8823438C8823431E
:10187000CC8823430C8923434C8923438C892343FD
:10188000CC8923431A430280838B4FF2FF74234099
:1018900083830B8A038210BD2DE9F04F85B0054686
:1018A0000C464FF0000902274FF000084FF0010BE3
:1018B0000026B246A88B4FF240010840A8830220C0
:1018C0002884B5F81C90A068022801D100BF38E038
:1018D000A08810B94FF0010B01E04FF0020B8D48CA
:1018E000854200D100E000BF6846FFF7C0FEDDF88A
:1018F00000A0E088B0F5007F0AD14FEA1A2000EB83
:1019000080004000A168B0FBF1F0401D86B20BE002
:101910004FEA4B10BAFBF0F000EB80004000A168EA
:10192000B0FBF1F0401D86B20A20B6FBF0F606F0DF
:101930000108A6EB0800C0F34F074FF6FF7000EA5E
:101940000828022F01DBFF2F02DD02274FF00008DD
:10195000E08840EA080038432884A088A189084329
:10196000618808432188084340F4006040EA09097F
:10197000A5F81C9005B0BDE8F08F002101804180E2
:101980008180C180018141818181C18107210182E2
:1019900070470021018041808180C18002218160E7
:1019A00000218181704721B1028842F0400202800B
:1019B00004E002884FF6BF731A400280704721B1DD
:1019C000828B42F48062828304E0828B4FF6FF3385
:1019D0001A408283704730B5002400230C11012582
:1019E000A540ABB21AB185881D43858002E0858889
:1019F0009D43858030BD1AB183880B43838002E00C
:101A000083888B4383807047818170470146888932
:101A100070474FF6FF62914204D0028842F4807210
:101A2000028004E002884FF6FF631A40028070478C
:101A300021B1828842F00402828004E082884FF65D
:101A4000FB731A408280704702884FF2FF731A407E
:101A5000028002880A4302807047018841F4805165
:101A60000180704721B1028842F40052028004E0F4
:101A700002884DF6FF731A4002807047024600202C
:101A8000012901D0108B00E0908A70470146088A36
:101A90007047B1F5804F04D1028842F48042028041
:101AA00004E002884BF6FF731A400280704702463A
:101AB000002013890B400BB1012000E0002070478B
:101AC000CA4302817047F0B502460020002400237B
:101AD000002501F00F070126BE40B4B20B1101260C
:101AE0009E40B3B2968806EA03051689264016B1D1
:101AF0000DB1012000E00020F0BD10B5002201F082
:101B00000F040123A3409AB2D343038110BD000008
:101B10000030014000380040003C004010B5044651
:101B2000FB48844209D101218803FFF727FE0021E9
:101B30004FF48040FFF722FE32E0F648844209D19C
:101B400001214804FFF727FE00214FF40030FFF782
:101B500022FE25E0F048844209D101218804FFF7E4
:101B60001AFE00214FF48020FFF715FE18E0EB4825
:101B7000844209D10121C804FFF70DFE00214FF472
:101B80000020FFF708FE0BE0E548844208D1012160
:101B90000805FFF700FE00214FF48010FFF7FBFD62
:101BA00010BD2DE9F04786B005460E460024A2463A
:101BB00000BFA1460027B08900B100BF2F462C8A84
:101BC0004CF6FF700440F08804432C82AC894EF63A
:101BD000F3100440B08831890843718908430443F5
:101BE000AC81AC8A4FF6FF400440B0890443AC821C
:101BF00001A8FFF73CFDC648874202D1DDF810A0DE
:101C000001E0DDF80CA0A88900F4004040B10AEB27
:101C1000CA0000EB0A1031684900B0FBF1F807E098
:101C20000AEBCA0000EB0A1031688900B0FBF1F83A
:101C30006420B8FBF0F004012009642101FB108945
:101C4000A88900F4004040B1322000EBC900B0FB8D
:101C5000F1F000F00700044308E0322000EB091027
:101C60006421B0FBF1F000F00F0004432C8106B0BA
:101C7000BDE8F0874FF41651016000218180C180DA
:101C800001810C21418100218181704710B50246FC
:101C90000020108A4FF2FF0318400B884C88234322
:101CA0008C882343CC8823431843108210BD002125
:101CB000018041808180C180704721B1828942F4D6
:101CC0000052828104E082894DF6FF731A408281BE
:101CD0007047F0B50346002400260025002040F69A
:101CE0006A17B94200D100BF1846C1F3421401F08F
:101CF0001F06012707FA06F5012C01D10C3004E07C
:101D0000022C01D1103000E014301AB107682F43C3
:101D1000076002E00768AF430760F0BD1AB1838A2D
:101D20000B43838202E0838A8B4383827047028A5B
:101D30004FF6F0731A400282028A0A430282704709
:101D400082894FF2FF731A40828182890A4382811D
:101D5000704721B1828942F00202828104E08289C7
:101D60004FF6FD731A4082817047028A4FF6DF7387
:101D70001A400282028A0A430282704721B1028A13
:101D800042F48042028204E0028A4BF6FF731A405A
:101D900002827047C1F3080282807047014688883A
:101DA000C0F308007047818941F0010181817047CB
:101DB000028BD2B20283028B42EA01220283704775
:101DC000028B02F47F420283028B0A430283704734
:101DD00021B1828A42F02002828204E0828A4FF698
:101DE000DF731A408282704721B1828A42F010026A
:101DF000828204E0828A4FF6EF731A408282704733
:101E000021B1828A42F00802828204E0828A4FF67F
:101E1000F7731A408282704721B1828942F40042EE
:101E2000828103E08289C2F30E028281704721B170
:101E3000828A42F40062828204E0828A4FF2FF7357
:101E40001A4082827047828A4FF6FB731A40828260
:101E5000828A0A438282704721B1828A42F002025A
:101E6000828204E0828A4FF6FD731A4082827047B4
:101E700002460020B1F5007F00D100BF13880B405F
:101E80000BB1012000E00020704701F40072B2F5B0
:101E9000007F00D100BFCA430280704770B5024680
:101EA000002400230025002040F66A16B14200D12C
:101EB00000BFC1F3421501F01F03012606FA03F328
:101EC000012D02D19689334006E0022D02D1168AF7
:101ED000334001E0968A33400C12012606FA04F4DE
:101EE0001688344013B10CB1012000E0002070BD11
:101EF00010B50022002340F66A14A14200D100BFB1
:101F00000A1201249440A3B2DC43048010BD0000F7
:101F1000003801400044004000480040004C0040B0
:101F200000500040704770477047754600F028F831
:101F3000AE4605006946534620F00700854618B0B6
:101F400020B5FEF753F9BDE820404FF000064FF0F2
:101F500000074FF000084FF0000B21F00701AC46DE
:101F6000ACE8C009ACE8C009ACE8C009ACE8C009FD
:101F70008D4670470446AFF300802046FEF71FF9F8
:101F8000004870472C00002001491820ABBEFEE736
:101F90002600020070470000000000000000002F33
:101FA000000000000700070000147F147F140024C5
:101FB0002A7F2A12006264081323003649552250F2
:101FC00000000503000000001C2241000000412227
:101FD0001C000014083E08140008083E0808000011
:101FE00000A0600000080808080800006060000009
:101FF000002010080402003E5149453E0000427F87
:102000004000004261514946002141454B310018D2
:1020100014127F10002745454539003C4A49493094
:10202000000171090503003649494936000649494E
:10203000291E000036360000000056360000000859
:102040001422410000141414141400004122140836
:1020500000020151090600324959513E007C12111B
:10206000127C007F49494936003E41414122007FB0
:102070004141221C007F49494941007F090909016A
:10208000003E4149497A007F0808087F0000417FEF
:102090004100002040413F01007F08142241007FA1
:1020A00040404040007F020C027F007F0408107F08
:1020B000003E4141413E007F09090906003E415171
:1020C000215E007F0919294600464949493100012E
:1020D000017F0101003F4040403F001F2040201F82
:1020E000003F4038403F0063140814630007087045
:1020F000080700615149454300007F4141000055F8
:102100002A552A55000041417F00000402010204C3
:1021100000404040404000000102040000205454B0
:102120005478007F48444438003844444420003800
:102130004444487F00385454541800087E09010272
:102140000018A4A4A47C007F080404780000447D47
:102150004000004080847D00007F10284400000083
:10216000417F4000007C04180478007C0804047857
:1021700000384444443800FC242424180018242443
:1021800018FC007C0804040800485454542000043F
:102190003F444020003C4040207C001C2040201C4C
:1021A000003C4030403C004428102844001CA0A0C3
:1021B000A07C004464544C441414141414140000FF
:1021C000E0210008000000202C0000006C01000845
:1021D0000C2200082C000020640600008801000882
:1021E0000000000000A24A040000000000000000FF
:1021F00001020304060708090000000001020304AD
:0C22000001020304060708090204060896
:0400000508000131BD
:00000001FF
